:020000040800F2
:10000000780E00203D02000839280008CD1F0008A6
:100010003528000871070008253600080000000098
:10002000000000000000000000000000912F000808
:100030004108000800000000F52D0008C52F000849
:10004000570200085702000857020008570200082C
:10005000570200085702000857020008570200081C
:10006000570200085702000857020008570200080C
:1000700057020008570200085702000857020008FC
:10008000750700085702000857020008000000002A
:1000900000000000000000000000000057020008FF
:1000A00057020008570200085702000857020008CC
:1000B00057020008570200085702000857020008BC
:1000C00057020008570200085702000857020008AC
:1000D00057020008570200085702000800000000FD
:1000E00057020008570200085702000800000000ED
:1000F000000000000000000000000000570200089F
:1001000000000000570200085702000857020008CC
:1001100000000000000000000000000000000000DF
:10012000570200085702000857020008570200084B
:10013000570200080000000000000000000000005E
:10014000000000000000000000000000570200084E
:10015000570200085702000857020008570200081B
:1001600057020008570200080000000000000000CD
:10017000000000000000000000000000000000007F
:10018000000000005702000800000000000000000E
:100190005702000800F002F800F041F80AA090E8C9
:1001A000000C82448344AAF10107DA4501D100F032
:1001B00036F8AFF2090EBAE80F0013F0010F18BFBE
:1001C000FB1A43F00103184780700000A070000084
:1001D000103A24BF78C878C1FAD8520724BF30C873
:1001E00030C144BF04680C60704700000023002445
:1001F00000250026103A28BF78C1FBD8520728BF37
:1002000030C148BF0B607047642900F0F7800020C0
:1002100070471FB503F072FE1FBD10B510BD00F092
:100220006CFA1146FFF7F5FF03F0D8FA00F08AFAEE
:1002300003B4FFF7F2FF03BC00F092FA09488047CD
:1002400009480047FEE7FEE7FEE7FEE7FEE7FEE7B8
:10025000FEE7FEE7FEE7FEE704480549054A064BD0
:1002600070470000693000089501000878080020F8
:10027000780E0020780A0020780A002053EA020C49
:1002800000F069802DE9F04B4FF00006002B1FBFF6
:10029000B3FA83F503FA05F424FA05F65E4012BFBB
:1002A0001643B2FA82F502FA05F4C5F120051EBF25
:1002B00022FA05FC44EA0C04203556EA044C4FEAC5
:1002C000144418BF641C4FF000084FF0000990421E
:1002D00071EB030C39D3002919BFB1FA81F701FA88
:1002E00007F6B0FA80F700FA07F6C7F120071EBF3D
:1002F00020FA07FC46EA0C062037B6FBF4FCA7EB15
:100300000507103F07F01F0BCBF120062CFA06F66D
:100310000CFA0BFB44BFB3460026202FA4BF5E4659
:100320004FF0000B5BEA060C08BF4FF0010B19EB16
:100330000B0948EB0608ABFB027C06FB02CC0BFB6F
:1003400003CCC01B71EB0C01C1E70B4602464146D2
:100350004846BDE8F08B13B5084318BF4FF0FF3097
:100360000146AFF30080BDE81C4070470FB41CB5D8
:10037000074B06AA7B4469460090059800F073F984
:100380000020694600F082F91CBC5DF814FB0000F7
:10039000150300002DE9F0410E46044600202062BE
:1003A0002046E168884730B3252805D0D4E90121EB
:1003B0009047206A401CF2E7E16820460027884702
:1003C000050018D0A5F14100192802D820354FF4B6
:1003D00000673246294620462760FFF715FF40B1E7
:1003E000012804D0F61D26F007060836D8E7361D8A
:1003F000D6E72846DAE7206ABDE8F0812DE9F0412A
:100400000646002410687529314616A510D0AFF3B2
:100410000080002802DA404213A507E031688A070D
:1004200001D512A502E0490704D511A5012401E078
:10043000AFF3008000210A2206F1240709E0B0FB97
:10044000F2FCB0FBF2F302FB1C003030785418468B
:10045000491C0028F3D123462A463046BDE8F04126
:1004600000F0A3B8000000002D0000002B000000E9
:100470002000000040EA010310B59B070FD1042AB9
:100480000DD310C808C9121F9C42F8D020BA19BA5F
:10049000884201D9012010BD4FF0FF3010BD1AB1C4
:1004A000D30703D0521C07E0002010BD10F8013B19
:1004B00011F8014B1B1B07D110F8013B11F8014B40
:1004C0001B1B01D1921EF1D1184610BD032A40F228
:1004D000308010F0030C00F0158011F8013BBCF1E6
:1004E000020F624498BF11F801CB00F8013B38BFFE
:1004F00011F8013BA2F1040298BF00F801CB38BF0C
:1005000000F8013B11F0030300F0C580083AC0F089
:10051000088051F8043B083A51F804CBA0E80810D1
:10052000F5E7121D5CBF51F8043B40F8043BAFF304
:100530000080D20724BF11F8013B11F801CB48BF5E
:1005400011F8012B24BF00F8013B00F801CB48BF94
:1005500000F8012B70474FF0000200B51346944697
:100560009646203922BFA0E80C50A0E80C50B1F10B
:100570002001BFF4F7AF090728BFA0E80C5048BF1F
:100580000CC05DF804EB890028BF40F8042B08BFBD
:10059000704748BF20F8022B11F0804F18BF00F8B9
:1005A000012B70477047704770472DE9F0470D46A3
:1005B00099469246044600F124080168880604D54D
:1005C000E06921F01001216000E00120A84201DD76
:1005D000471B00E00027A1697A1902EB0900081AFD
:1005E000A0612078C00602D42046AFF30080002628
:1005F00008E0D4E901211AF806009047206A401C5F
:10060000761C20624E45F4DB2078C0060AD52046D1
:10061000AFF3008006E0D4E9012130209047206A42
:10062000401C2062381EA7F10107F4DC07E0D4E982
:10063000012118F805009047206A401C2062281EFE
:10064000A5F10105F3DC2046AFF300802078000619
:1006500002D50220BDE8F0870120FBE701694A1CB2
:1006600002610878704700B58FB0CDE901310021F3
:10067000059105497944CDE9031011466846FFF715
:1006800089FE0FB000BD0000E5FFFFFF0A6802F819
:10069000010B0A60704710B5203AC0F00B80B1E83A
:1006A0001850A0E81850B1E81850A0E81850203AA7
:1006B000BFF4F5AF5FEA027C24BFB1E81850A0E8B0
:1006C000185044BF18C918C0BDE810405FEA827CCA
:1006D00024BF51F8043B40F8043B08BF7047D207E1
:1006E00028BF31F8023B48BF11F8012B28BF20F882
:1006F000023B48BF00F8012B7047754600F02CF80C
:10070000AE4605006946534620F00700854618B0FE
:1007100020B5FFF7A1FDBDE820404FF000064FF0E7
:1007200000074FF000084FF0000BAC46ACE8C009E2
:10073000ACE8C009ACE8C009ACE8C00921F0070189
:100740008D46704710B50446AFF300802046BDE8E3
:100750001040FFF76DBD00000048704710000020FA
:1007600001491820ABBEFEE72600020070470000DA
:10077000FEE7000080B540F2E460C2F2000000F045
:1007800065F880BDD0F800C06FF00F024AF6AB23C9
:1007900052FA8CF2CAF6AA230146A2FB03300009E2
:1007A00005A31B5C40F2FF302CEA00005F2A88BFE3
:1007B0000430C1E916037047000610160006101633
:1007C0008269816AB2F5005F06D06AB9022912D047
:1007D000012914D0D1B90EE0032917D8DFE801F0C0
:1007E000020B020F0120704703293CBF0120704714
:1007F0001CBF00207047C06AC0F300607047C06A29
:10080000A0F1C070B0FA80F0400970470020704736
:1008100080B5D0F800C0D0F808E0DCF80000BEF1E8
:10082000400F20F48020CCF800000846CCF80430BB
:1008300004BF10460A46CCF80800CCF80C2080BD56
:100840007047000072B600BFFEE70000F0B581B04F
:1008500004460020009040F20000C2F2000002684E
:10086000D4E9166048F2B51337680821C1F64E3353
:1008700081403942A2FB03250CD0226813685B0734
:1008800008D5136823F004031360B160616D41F073
:100890000101616501218140394208D02268526915
:1008A000120604D5B160616D41F002016165042159
:1008B0008140394208D022681268920704D5B1609D
:1008C000616D41F00401616510218140394215D00C
:1008D00020680268120711D5B160026801685203EE
:1008E00006D4C90506D4016821F00801016001E0C1
:1008F000080342D4216C09B120468847E16D2020CD
:1009000000FA01F23A4244D020680368DB0640D581
:10091000B26094F835300268052B1ED122F0160221
:100920000260426922F080024261226C0AB9A26C24
:100930001AB1026822F0080202603F208840B060CD
:10094000012084F83500216D0020002984F834004E
:1009500040D02046884701B0F0BD0168520310D452
:10096000C90512D4016821F010010160012084F84A
:100970003500002084F8340007E0A16C0029BBD1C9
:10098000BCE7080301D4616C00E0E16B09B12046CB
:100990008847606DF0B1606DC00717D0052084F8FE
:1009A00035002068A90A026822F00102026000BF37
:1009B000009A01328A42009202D80268D207F7D127
:1009C000012084F83500002084F83400E16C09B17E
:1009D0002046884701B0F0BD2DE9F041044600F003
:1009E0008BF9C4B10546022084F835000020216847
:1009F00084F83400086820F0010008602668306838
:100A0000C0070BD000F078F9401B0528F6D9032168
:100A10002022032042E00120BDE8F081306848F246
:100A20003F01CFF21001251D00EA010C2ECDD4E9C3
:100A3000050E41EA0C01114319432943D4E9077813
:100A4000084340EA0E01606A3943042841EA08017C
:100A500003D1D4E90B231143194331607169042890
:100A600021F0070141EA00050CD1D4E90A1045EA5A
:100A7000010538B12046FFF7A3FE18B1012140223D
:100A800001200BE020467561FFF77CFEE16D3F22FF
:100A900002FA01F18160002201210020626584F8E0
:100AA0003510BDE8F0810000B0B5044690F8340080
:100AB000012828D0012084F83400A56D94F8350071
:100AC00001281DD1022084F83500002060652046F1
:100AD000FFF79EFEE26D3F23206803FA02F2216CCD
:100AE000AA60026842F01602026019B1016841F082
:100AF00008010160016841F0010101600020B0BD02
:100B0000002084F834000220B0BD0000B0B50446D7
:100B100000F0F2F8054640F20400C2F2000000784E
:100B2000611C18BF044400BF00F0E6F8401BA0425F
:100B3000FAD3B0BD2DE9F04F83B000F13E4202F18F
:100B4000FF724FEAB22241F200070192C4F202079B
:100B500007224FF0010E00254FF0000A4FF0000869
:100B6000B84208BF042200920AE000BF08F1010861
:100B70000AF1040AB8F1100F05F1020500F0A48093
:100B80000C680EFA08FB14EA0B09EFD04C6804F06D
:100B9000030CACF1010EBEF1010F11D803228768DE
:100BA00002FA05F6CA68B743AA403A43826042682F
:100BB000C4F3001722EA0B0207FA08F73A4342602F
:100BC000BCF1030F1CD0C26803238E6803FA05F73B
:100BD000BA4306FA05F73A43BCF1020FC2600FD1DF
:100BE0006FF0030202EA580202440AF01C060F23C7
:100BF000176A03FA06F40B69A743B3403B43136239
:100C0000026803234F68AB409A4307F00303AB40ED
:100C10001A4317F4403F4FF0010E0260A6D00022A5
:100C200043F644030292C4F202031A6843F60044F6
:100C300042F480421A601A68C4F2010402F480424D
:100C40000292029A28F003024FF6084B2244CFF694
:100C5000FF7B52F80B300AF00C070F26BE4023EA48
:100C6000060C019B009E042B38BF1E4606FA07F7B0
:100C700047EA0C0342F80B30A2684B6842EA0907C6
:100C800043F60C4CDE0258BF22EA0907A760C4F203
:100C9000010CDCF800209E0242EA090758BF22EA54
:100CA0000907CCF8007062689E0342EA090758BF42
:100CB00022EA090767602268DB0342EA090358BF9A
:100CC00022EA0903236051E703B0BDE8F08F00007A
:100CD0000069084018BF012070470000426902EA1D
:100CE0000103914341EA034181617047002A08BF33
:100CF000090481617047000040F67400C2F20000F0
:100D00000068704770B5B0B3044690F83D0028B94C
:100D1000002084F83C00204600F058F9242084F894
:100D20003D002068016821F001010160016841F483
:100D300000410160016821F40041016000F0BCFA4B
:100D400048F28041C0F21E0140F6001266688842F7
:100D50004FF00001C0F23D0248F2A16C4FF00003D9
:100D600038BF01219042C0F2010C38BF0123664513
:100D700038BF0B460BB1012070BD4DF68361C4F244
:100D80001B31A0FB01122168930C4D68664525F0CC
:100D90003F0545EA92424A600A6A22F03F0C09D3B5
:100DA0004FF496725A4344F6D353C1F26203A2FB46
:100DB00003239B095A1C42EA0C020A6248F2A06310
:100DC000CA69C0F201039E424CF6FF7322EA030C8B
:100DD0000AD801387200B0FBF2F001306FF31F3017
:100DE000042898BF04202BE0A368A0F1010E9BB15A
:100DF00019207043BEFBF0F00422013062F31F3073
:100E0000000512D09BB119207043BEFBF0F0042204
:100E1000013062F31F3011E006EB4600BEFBF0F03C
:100E200001306FF31F300005ECD1012008E006EB24
:100E30004600BEFBF0F001306FF31F3040F400407D
:100E400040EA0C00C8610868D4E9072320F0C0001C
:100E5000104318430860886848F2FF3204F10C061A
:100E600090434CCE18431043A5698860C86820F0B1
:100E7000FF0030432843C860086840F00100086064
:100E800000202021206484F83D10206384F83E0077
:100E900070BD00002DE9F04782B01E461746894616
:100EA0000446FFF729FF94F83D1020290ED10221B6
:100EB0000546C0F21001204601221923009501F0D9
:100EC0002DF918B994F83C00012803D1022002B092
:100ED000BDE8F0870121206884F83C100168DDF846
:100EE0002880C90703D1016841F001010160016850
:100EF0004FF0000A21F400610160212084F83D00D8
:100F0000102084F83E00C4F840A067626685608DBA
:100F1000494620850020CFF6FF70E0622046424619
:100F20002B4601F06DF818B1012002B0BDE8F08742
:100F3000CDF804A020684169019180690190019871
:100F400006E000BF204641462A4601F0B1F820BB2A
:100F5000208D58B3204641462A4601F083F9E0B976
:100F6000606A2168024612F8013B0B616262628D81
:100F7000013A6285228D571E27854B693F0418BFB1
:100F800013F00403DED0437802300B616062608DA1
:100F900001386085901E2085D4E7206C0428C3D1D9
:100FA0002068016841F400710160BDE720680168B4
:100FB00041F400710160202084F83D00002084F895
:100FC0003E0084F83C0002B0BDE8F087B0B586B0C2
:100FD00000240594CDE9034445F200410068C4F2C1
:100FE000000188420294019401D006B0B0BD43F6DE
:100FF00030050094C4F20205286840F00200286021
:10100000286800F0020000900098C0200190122093
:10101000CDE90204032004900420059001F5D830A6
:1010200001A9FFF787FD0094286940F400102861AA
:10103000286900F400100090009806B0B0BD0000D0
:1010400040F2040040F67401C2F20000C2F2000156
:1010500000780A68104408607047000080B543F6C5
:101060000040C4F20200016841F4007101600168AF
:1010700041F480610160016841F4807101600320E6
:1010800000F060F80F2000F005F800F02BF80020C9
:1010900080BD0000B0B540F20402C2F2000240F28E
:1010A00000011278C2F200014FF47A730968B3FBB1
:1010B000F2F20446B1FBF2F1084600F0F7FA0F2C09
:1010C0004FF001050CD858B94FF0FF3021460022EF
:1010D000002500F027F840F20800C2F2000004608A
:1010E0002846B0BD82B0002043F640010190C4F212
:1010F00002014A6842F480424A604A6802F480422F
:101100000192019A0090086840F0805008600868D9
:1011100000F080500090009802B0704780B502F057
:101120009DFA80BD70B514460D46064602F0A6FA3B
:101130002946224601F082FB0146304602F0A6FA1B
:1011400070BD000080B502F0B3FA80BD2DE9F0411A
:10115000002800F08B8043F60808C4F20208044619
:10116000D8F8F8030D4600F00700884207D288F847
:10117000F853D8F8F80300F00700A84276D12068A9
:10118000810717D5410705D5D8F8001041F4E05183
:10119000C8F80010010705D5D8F8001041F46041E7
:1011A000C8F80010D8F80010A26821F0F00111432F
:1011B000C8F80010C0073FD1D8F8F80300F00700C6
:1011C000A84207D988F8F853D8F8F80300F00700C8
:1011D000A8424BD12068410707D5D8F80010E26833
:1011E00021F4E0511143C8F80010000708D5D8F8E1
:1011F0000000216920F4604040EAC100C8F8000006
:1012000000F07EF8D8F8001043F61672C1F303110F
:10121000C0F60002515C40F2000220FA01F140F2F7
:101220000800C2F200000068C2F200021160FFF77D
:1012300031FF0020BDE8F0816068811E022907D2DD
:1012400058F8081C89015CBF0120BDE8F08110E05E
:10125000012807D158F8081C89035CBF0120BDE8AC
:10126000F08106E058F8081C890702D40120BDE887
:10127000F081D8F8001021F003010843C8F80000FD
:10128000FFF73AFD064641F2883700BFD8F8000064
:10129000616800F00C00B0EB810F8DD0FFF72CFDE2
:1012A000801BB842F2D90320BDE8F08140F2000073
:1012B000C2F200000068704780B5FFF7F7FF43F601
:1012C0000801C4F20201096843F62672C1F38221C3
:1012D000C0F60002515CC84080BD000080B5FFF739
:1012E000E5FF43F60801C4F20201096843F62672DD
:1012F000C1F34231C0F60002515CC84080BD00001D
:1013000010B543F60404C4F20204606800F00C0057
:1013100008280AD0042819BF42F20040C0F2F400A5
:1013200047F64000C0F27D1010BD20682168236898
:10133000490247F64001C0F27D1100F03F02C3F3BD
:1013400088105CBF42F20041C0F2F401A1FB000131
:101350000023FEF793FF21680222C1F3014102EB53
:101360004101B0FBF1F010BD2DE9F04182B0002841
:1013700000F09F800446007843F60006C007C4F2E0
:10138000020641D0B06800F00C00042805D1306896
:10139000800339D56068B8BB8BE0B06800F00C0002
:1013A000082802D170684002F1D46568B5F5803F25
:1013B00006D03068B5F5A02F06D140F4802030600B
:1013C000306840F4803005E020F4803030603068D0
:1013D00020F480203060FFF78FFC002D054610D0F0
:1013E0003068800310D4FFF787FC401B6428F7D9CE
:1013F00022E100BFFFF780FC401B64284FF0030090
:1014000054D830688003F5D4207880071AD5B068A6
:1014100010F00C0F09D0B06800F00C00082840F064
:101420008C807068400200F188803068800702D5A7
:10143000E06801283DD13068216920F0F80040EAD9
:10144000C10030602078000737D4207840074AD4A4
:10145000A56955B3B06800F00C00082840F0A080E2
:10146000012D26D07068E16900F480028A4220D103
:10147000216A00F03F028A421BD147F6C071626ABE
:101480000140B1EB821F14D1A16A4FF6FF73C9036B
:10149000994300F44032A1F580318A4209D1E16AD2
:1014A00000F07060B0EB016F03D1002002B0BDE826
:1014B000F081012002B0BDE8F0816069002840F2AF
:1014C0000000C4F247205AD00121C0F8801EFFF767
:1014D00013FC0546706F8007B7D4FFF70DFC401B67
:1014E0000228F7D9A8E0306C4FF00008C0000CD4F7
:1014F000CDF80480306C4FF0010840F0805030642B
:10150000306C00F080500190019847F20007C4F25F
:1015100000073868C00525D4386840F4807038600A
:10152000FFF7EAFB054600BF3868C0051AD4FFF78D
:10153000E3FB401B0228F7D97EE0E068002851D089
:101540000020C4F2472001210160FFF7D5FB0546CA
:10155000306880073FF56FAFFFF7CEFB401B0228D6
:10156000F6D969E0A568012D05D0306F052D4DD164
:1015700040F004003067306F40F001004CE0002183
:10158000C0F8801EFFF7B8FB054600BF706F8007EC
:101590007FF55BAFFFF7B0FB401B0228F6D94BE0AD
:1015A0000027C4F2472700203866FFF7A5FB022D6D
:1015B00005460BD13068800156D5FFF79DFB401BD7
:1015C00002284FF00300F5D970E700BF30688001B2
:1015D0007FF56BAFFFF790FB401B02284FF0030035
:1015E000F4D963E70020C4F2472000210160FFF72F
:1015F00083FB0546306880077FF524AFFFF77CFB4F
:10160000401B02284FF00300F4D94FE720F00100FF
:101610003067306F20F004003067FFF76DFB002D5E
:10162000054641F2883713D0306F800713D4FFF797
:1016300063FB401BB842F7D9032002B0BDE8F0813C
:10164000FFF75AFB401BB8424FF003003FF62EAFA6
:10165000306F8007F4D4B8F1000F3FF4F9AE306C6E
:1016600020F080503064F3E604F11C052FCD0843D0
:1016700040EA8210D9034FF6FF729143A1F5803101
:1016800040EA05600843706001203866FFF734FBCC
:10169000044600BF306880013FF507AFFFF72CFB21
:1016A000001B02284FF00300F4D9FFE680B501F0DB
:1016B00071FC80BD10B590F83C20012A4FF0020269
:1016C00040D0012380F83C3080F83D200268D2F8F9
:1016D00004E0D2F808C00C682EF07003234340F6F3
:1016E000FF34C4F20004A24253600FDCB2F1804F19
:1016F0001DD040F20043C4F200039A4217D040F6D6
:101700000003C4F200039A4211D015E040F60043F2
:10171000C4F200039A420AD044F20003C4F2010367
:101720009A4204D00023C4F201039A4204D14968CA
:101730002CF08003194391600121002280F83D10B4
:1017400080F83C20104610BD002804BF01207047DF
:1017500010B5044690F83D0028B9002084F83C00FC
:10176000204600F01FF8022084F83D002068211D6B
:1017700001F084FC012084F8460084F83E0084F8DF
:101780003F0084F8400084F8410084F8420084F867
:10179000430084F8440084F8450084F83D000020AC
:1017A00010BD000070B582B00446006840F60041EC
:1017B000C4F20001884237D0B0F1804F43D10020FD
:1017C00043F640010190C4F202010A6840F2E46568
:1017D00042F001020A600968C2F2000501F001014D
:1017E0000191019946F28801C4F202014FF0C062F2
:1017F00040234FF4804685E80E0005F10C014FF4BC
:10180000806C4FF4805E81E80150C5E90660C5E94F
:1018100008002846FFF7E0F8002818BFFFF712F885
:101820006562AC6302B070BD0020009043F64000DA
:10183000C4F20200016841F008010160006800F094
:1018400008000090009802B070BD000010B504467A
:1018500090F83C0001284FF0020008BF10BD0122A3
:1018600084F83C2084F83D0020684FF67773826846
:101870009A4382600A684F2A0FDC1F2A22DD202A41
:1018800023D0302A21D0402A4DD14B68CA6819464E
:1018900001F0CAFD206840213BE06F2A17DDB2F558
:1018A000005F20D0B2F5805F2AD0702A3BD1D1E909
:1018B000012CCB68614601F0E7FC2068816841F0AB
:1018C00077011AE00AB1102A2DD1114621E0502AE1
:1018D00018D0602A27D14B68CA68194601F0B6FDB6
:1018E0002068602115E0D1E9012CCB68614601F048
:1018F000CBFC2068816841F48041816000200BE0CE
:10190000002009E04B68CA68194601F08DFD206887
:10191000502101F0C5FC0020012184F83D10002178
:1019200084F83C1010BD0120F6E70000704700006D
:1019300080B586B00021CDE90411CDE9021100681F
:1019400040F60042C4F200029042019116D0B0F17C
:10195000804F30D10020009043F63000C4F20200E6
:10196000016841F001010160006800F00100009091
:1019700000984FF400400190012010E043F6300041
:101980000091C4F20200016841F0010101600068A9
:1019900000F0010000900098082001900220022130
:1019A00002910021CDE9031105900020C4F202004C
:1019B00001A9FFF7BFF806B080BD0000B0B504462E
:1019C00090F83C00012804BF0220B0BD0D464FEA4C
:1019D000B2010120032984F83C0037D8DFE801F088
:1019E000020A12222068294601F062FC206850F8A1
:1019F000181F0EE02068294601F08AFC206850F884
:101A0000181F16E02068294601F0B6FC206850F83F
:101A10001C1F41F008010160016821F00401016010
:101A200029690FE02068294601F0DAFC206850F8A7
:101A30001C1F41F400610160016821F480610160B4
:101A4000296909020268114301600020002184F81D
:101A50003C10B0BD002804BF0120704710B50446FB
:101A600090F83D0028B9002084F83C00204600F0A2
:101A70001FF8022084F83D002068211D01F0FEFAC5
:101A8000012084F8460084F83E0084F83F0084F882
:101A9000400084F8410084F8420084F8430084F850
:101AA000440084F8450084F83D00002010BD00008B
:101AB000704700007047000070470000B0B5044652
:101AC00041B1082909D0042914BF04F1410004F1EF
:101AD0003F0004E004F13E0001E004F14000007822
:101AE00001281CBF0120B0BD022041B1082909D046
:101AF000042914BF84F8410084F83F0004E084F80E
:101B00003E0001E084F84000206844250122C4F230
:101B1000010501F029FB2068A5F14401884203D1A9
:101B2000296841F40041296040F6FF31C4F2000108
:101B300088420FDCB0F1804F1DD040F20041C4F26A
:101B40000001884217D040F60001C4F2000188422B
:101B500011D017E040F60041C4F2000188420AD0DB
:101B600044F20001C4F20101884204D00021C4F211
:101B70000101884206D1816801F00701062904BFEE
:101B80000020B0BD016841F0010101600020B0BD3E
:101B9000F0B581B00D46044641B1082D09D0042DA1
:101BA00014BF04F1410004F13F0004E004F13E00E1
:101BB00001E004F140000078022803D102263046FB
:101BC00001B0F0BD45B1082D09D0042D14BF04F1BA
:101BD000410004F13F0004E004F13E0001E004F1A3
:101BE00040000078002A4FF00106E8D00128E6D135
:101BF00053B1022055B1082D0BD0042D14BF84F829
:101C0000410084F83F0006E00126D8E784F83E0052
:101C100001E084F840004FEAB500032821D8DFE84E
:101C200000F00222405D606A43F28D17C0F60007A3
:101C3000C763606A43F2F517C0F600070764606A7D
:101C400043F22D272168C0F60007C764606A01F1DE
:101C5000340611463246FEF727FF00285BD00126E6
:101C6000ADE7012667E0A06A43F28D17C0F60007D2
:101C7000C763A06A43F2F517C0F600070764A06ABD
:101C800043F22D272168C0F60007C764A06A01F15E
:101C9000380611463246FEF707FF00283ED00126DF
:101CA0008DE7E06A43F28D17C0F60007C763E06A6C
:101CB00043F2F517C0F600070764E06A43F22D27E8
:101CC0002168C0F60007C764E06A01F13C061146CE
:101CD0003246FEF7E9FE20B3012670E7206B43F29F
:101CE0008D17C0F60007C763206B43F2F517C0F6E7
:101CF00000070764206B43F22D272168C0F6000718
:101D0000C764206B01F1400611463246FEF7CCFE57
:101D100050B1012653E74FF4007007E04FF48060A4
:101D200004E04FF4006001E04FF480502168002689
:101D3000CA681043C860002E7FF441AF2068442772
:101D400029460122C4F2010701F00EFA2068A7F12A
:101D50004401884203D1396841F40041396040F6BA
:101D6000FF31C4F2000188420DDCB0F1804F1BD07E
:101D700040F20041C4F20001884215D040F6000153
:101D8000C4F200010EE040F60041C4F200018842B6
:101D90000AD044F20001C4F20101884204D00021BB
:101DA000C4F2010188420AD1816801F007010629C5
:101DB0003FF405AF016841F001010160FFE60168F1
:101DC00041F001010160FAE670B5044600680026A2
:101DD00000220D46C4F2010601F0C6F92068B042A7
:101DE0000DD1316A41F21112114208D1016A40F25B
:101DF0004442114203D1416C21F400414164016A23
:101E000041F21112114208D1016A40F244421142DA
:101E100003D1016821F0010101600120082D09D0E2
:101E2000042D0BD0002D14BF84F8410084F83E002F
:101E3000002070BD84F84000002070BD84F83F0091
:101E4000002070BD002804BF0120704710B5044673
:101E500090F8410028B9002084F84000204600F0A6
:101E600021F8242084F841002068C16821F4005141
:101E7000C160204601F024FB2068016921F49041F3
:101E80000161416921F02A014161C16841F40051B9
:101E9000C16000202021606484F8411084F8421061
:101EA000606310BD80B586B000220592CDE90322A3
:101EB00041F200010068C4F20101884202920192DD
:101EC00001D006B080BD43F630000092C4F202009B
:101ED000436943F010034361436903F01003009327
:101EE000009B0092036843F001030360006800F068
:101EF0000100009000984FF4C06001900220CDE9ED
:101F00000202032004900720059001F5704001A90A
:101F1000FEF710FE06B080BD2DE9F041044690F8B2
:101F2000410020281CBF0220BDE8F0810E46002998
:101F30004FF0010042D01746002A08BFBDE8F081EB
:101F40004FF0000821201D46C4F8448084F8410069
:101F5000FEF7D2FEA784E784A1680746B1F5805F4B
:101F60000DD12069002814BF3046B046064606E071
:101F700016F8010B21684860E08C0138E084E08CA1
:101F800080B1204680213A462B4601F007FBB8B9C4
:101F9000002EEDD138F8020B21686FF35F20486006
:101FA0000026E9E7204640213A462B4601F0F6FAA2
:101FB000202184F84110002818BF0320BDE8F081DB
:101FC000202084F841000320BDE8F081FEE70000F6
:101FD0000268516949054FF000010FD56FF4806325
:101FE00053612022016380F83D2080F83E10026C8E
:101FF00042F00402026480F83C1001210846704758
:102000002DE9F04182B00446C06A1D46164610F51F
:10201000803F0F4618BF012823D12068016841F492
:102020008071016020464FF0011100223346009577
:1020300000F074F850B120680068C00544BF4FF448
:1020400000702064032002B0BDE8F081206940F2F6
:102050000208B0F5804FC0F2010808D107F0FE0079
:1020600018E00828D9D0206B1228D6D0DAE706204D
:1020700000EAD7102168F030086108F10601204617
:1020800032462B4600F09AF818B1012002B0BDE8A4
:10209000F081F8B2216832460861204641462B465D
:1020A00000F08CF8002818BF012002B0BDE8F081D4
:1020B000F0B581B004460068406940071AD415465F
:1020C0000E464F1C08E000BF20684069400714D549
:1020D0002068406940070DD42046FFF779FFC8B952
:1020E000002FF5D0FEF708FE002EEDD0401BB042C9
:1020F000EED9E9E7002001B0F0BD002020212063E7
:1021000084F83D1084F83E00216C41F020012164E8
:1021100084F83C00012001B0F0BD00002DE9F0473B
:10212000DDF8208099461646044601F47F078DB2FB
:1021300003F1010A11E000BF20681821B7F5803FC4
:1021400008BF142140582A4608BF2A461040801A6A
:10215000B0FA80F04009B04220D020681821B7F5CD
:10216000803F08BF142140582A4608BF2A46104025
:10217000801AB0FA80F04009B0420CD1BAF1000FD9
:10218000EBD0FEF7B9FDB9F1000FD5D0A0EB0800F8
:102190004845E2D9D0E70020BDE8F08700202021A3
:1021A000206384F83D1084F83E00216C41F020014A
:1021B000216484F83C000120BDE8F0872DE9F0435C
:1021C00081B098469146044601F47F078DB2561CB3
:1021D0000DE000BF20681821B7F5803F08BF14212B
:1021E00040582A4608BF2A461040904228D120680D
:1021F0001821B7F5803F08BF142141582A4608BF6F
:102200002A46114091420ED0416949050FD4002E53
:10221000EDD0FEF771FDB9F1000FDBD0A0EB0800A7
:102220004845E4D9D6E7002001B0BDE8F083016855
:1022300041F4007101606FF480614161042000E0AD
:10224000202000212022216384F83D2084F83E10C4
:10225000226C1043206484F83C10012001B0BDE8DA
:10226000F0830000F0B581B00446006840690006C4
:102270001AD415460E464F1C08E000BF206840697E
:10228000000614D52068406900060DD42046FFF7EB
:102290009FFEC8B9002FF5D0FEF72EFD002EEDD021
:1022A000401BB042EED9E9E7002001B0F0BD0020AC
:1022B0002021206384F83D1084F83E00216C41F019
:1022C0002001216484F83C00012001B0F0BD000031
:1022D000B0B540F20044C4F2020420464FF48051ED
:1022E0000122FEF703FD20464FF400510022FEF7C5
:1022F000FDFC20464FF480410022FEF7F7FC20460B
:102300004FF400410022FEF7F1FC20460421FEF7C5
:10231000DFFC0138B0FA80F0450920461021FEF7B5
:10232000D7FC012820464FF0200108BF0525FEF705
:10233000CFFC012820464FF4007108BF0925FEF7A5
:10234000C7FC012820464FF480514FF0000208BF1F
:102350000D25FEF7CBFC20464FF400510122FEF77D
:10236000C5FC20464FF480410022FEF7BFFC20460A
:102370004FF400410022FEF7B9FC20460421FEF78D
:10238000A7FC012820464FF0100108BF0225FEF7E8
:102390009FFC012820464FF0200108BF0625FEF7CC
:1023A00097FC012820464FF4007108BF0A25FEF76C
:1023B0008FFC012820464FF480514FF0000208BFE7
:1023C0000E25FEF793FC20464FF400510022FEF745
:1023D0008DFC20464FF480410122FEF787FC204609
:1023E0004FF400410022FEF781FC20460421FEF755
:1023F0006FFC012820464FF0100108BF0325FEF7AF
:1024000067FC012820464FF0200108BF0725FEF792
:102410005FFC012820464FF4007108BF0B25FEF732
:1024200057FC012820464FF480514FF0000208BFAE
:102430000F25FEF75BFC20464FF400510022FEF70B
:1024400055FC20464FF480410022FEF74FFC204609
:102450004FF400410122FEF749FC20460421FEF71B
:1024600037FC012820464FF0100108BF0425FEF775
:102470002FFC012820464FF0200108BF0825FEF759
:1024800027FC012820464FF4007108BF0C25FEF7F9
:102490001FFC012820464FF480514FF0010208BF75
:1024A0001025FEF723FC20464FF400510122FEF7D1
:1024B0001DFC20464FF480410122FEF717FC204608
:1024C0004FF400410122FEF711FC2846B0BD000088
:1024D00080B582B00020019043F63000C4F20200C3
:1024E0000168002241F4001101600068002100F43D
:1024F0000010019001981020FEF714FE1020FEF746
:102500000DFE02B080BD00002DE9F04F87B0002421
:1025100043F630000694CDE90444CDE90244019429
:10252000C4F20200016840F2004841F00401016079
:102530000168C4F2020801F00401019101990194BB
:10254000016808F5806741F08001016001680022A0
:1025500001F0800101910199019401684FF4005646
:1025600041F001010160016801F00101019101994F
:102570000194016841F00201016000684FF40051CC
:1025800000F00200019001983846FEF7AFFBA8F575
:1025900080652846042100224FF0040BFEF7A6FBBD
:1025A00040464FF4704101224FF4704A4FF0010948
:1025B000FEF79CFBCDE9026902AE38463146CDE913
:1025C0000444FEF7B7FA032728463146CDE902B99D
:1025D00004940597FEF7AEFA4FF40D70CDE90204AE
:1025E0000220049040463146FEF7A4FA40463146A8
:1025F000CDE902A9CDE90447FEF79CFA4FF48077B4
:1026000028463146CDE90274CDF81090FEF792FAD3
:1026100040463146CDE90274CDF81090FEF78AFAB3
:1026200007B0BDE8F08F000080B540F2447045F27D
:102630000041C2F20000C4F2000141F680220023F2
:102640004FF4804CC0F2060280E80E00C0E9033C63
:10265000C0E90533C0E90733FEF754FB002818BF73
:10266000FEF7F0F880BD000010B58EB040F29C700F
:102670000021C2F200004FF0804269230D91CDE9A4
:102680000B11CDE90911CDE90711CDE90511CDE90E
:102690000311CDE90111C0E90021C0E90213016174
:1026A0008161FFF751F8002818BFFEF7CBF84FF40F
:1026B00080500A9040F29C70C2F200000AA9FFF715
:1026C000C5F8002818BFFEF7BDF840F29C70C2F2B2
:1026D0000000FFF7BFF9002818BFFEF7B3F840F27B
:1026E0009C700024C2F2000008A9CDE90844FEF75E
:1026F000E1FF002818BFFEF7A5F86020CDE901042E
:1027000040F29C70C2F2000001A9002203940594DB
:10271000FFF754F9002818BFFEF794F840F29C70B8
:10272000C2F20000FFF704F90EB010BD10B58EB074
:1027300040F2E47040F600420021C2F20000C4F210
:10274000000240F2473309240D91CDE90B11CDE988
:102750000911CDE90711CDE90511CDE90311CDE945
:102760000111C0E90023C0E9021401618161FEF793
:10277000EBFF002818BFFEF765F84FF480500A9071
:1027800040F2E470C2F200000AA9FFF75FF80028E7
:1027900018BFFEF757F840F2E470C2F20000FFF7EE
:1027A00059F9002818BFFEF74DF840F2E4700024F4
:1027B000C2F2000008A9CDE90844FEF77BFF00281B
:1027C00018BFFEF73FF8602001900420CDE9020415
:1027D00040F2E470C2F2000001A90C220594FFF758
:1027E000EDF8002818BFFEF72DF840F2E470C2F2B1
:1027F0000000FFF79DF80EB010BD000080B540F658
:102800002C0041F20001C2F20000C4F201010023D9
:102810004FF00C0C4FF4E13280E80E00C0E90333B6
:10282000C0E905C3C361FFF70DFB002818BFFEF721
:1028300009F880BDFEE70000FEE7000000F0070099
:1028400080F00703042B28BF04234FF0FF3C03381C
:102850000CFA03F338BF0020994381400CFA00F0D2
:1028600022EA00000843704780B582B09C46D2F847
:1028700004E013785278CDF804C00092724600F05C
:10288000E3F902B080BD00002DE9F04F83B00C9D4C
:102890009946044682420E460ED14F46B1453CBF92
:1028A00037464E46F1B220462A4600F05BFA013622
:1028B000F0B2B842F6D962E09046B1450ED1474633
:1028C000A0453CBF27464446E0B231462A4600F0C8
:1028D00049FA0134E0B2B842F6D950E0A8EB040A54
:1028E000A9EB060BBAF1000F4FF0FF314FF0FF30AC
:1028F000C8BF0121BBF1000FC8BF0120BAF1000F12
:1029000048BFCAF1000ABBF1000F48BFCBF1000B72
:10291000DA45CDE9011019DD444530D0002700BF6C
:10292000E0B2F1B22A4600F01DFA0BFA87F738043C
:10293000BAEBE03F029839B2DCBF0644A1EB0A07CC
:102940000198044420B24045EAD118E04E4516D023
:10295000002700BFE0B2F1B22A4600F003FA0AFAFB
:1029600087F73804BBEBE03F019839B2DCBF044481
:10297000A1EB0B070298064430B24845EAD103B0F8
:10298000BDE8F08F80B5AE2000F0F6F8202000F012
:10299000F3F8102000F0F0F8B02000F0EDF8C820B7
:1029A00000F0EAF8002000F0E7F8102000F0E4F86A
:1029B000402000F0E1F8812000F0DEF8DF2000F098
:1029C000DBF8A12000F0D8F8A62000F0D5F8A82068
:1029D00000F0D2F83F2000F0CFF8A42000F0CCF8AF
:1029E000D32000F0C9F8002000F0C6F8D52000F090
:1029F000C3F8F02000F0C0F8D92000F0BDF8222084
:102A000000F0BAF8DA2000F0B7F8122000F0B4F8BD
:102A1000DB2000F0B1F8202000F0AEF88D2000F0AF
:102A2000ABF8142000F0A8F800F006F800F0B8F9B0
:102A3000AF2000F0A1F880BD80B540F27000C2F276
:102A400000004FF48061FDF786FD80BD10B582B0B7
:102A500093F800E0D3F804C05B78203A0EF1070445
:102A6000E4085A4302FB04C2049CCDE900E400F0F0
:102A7000EBF802B010BD00002DE9F04F85B017460D
:102A800012780491002A62D082461878597807306B
:102A9000C008484304301C465FFA80FB4FF0000832
:102AA0003D46039714E000BFE36804990E9D5FFA6A
:102AB0008AF020220095FFF7C9FFE068B044407813
:102AC00082441FFA88F0385C17FA88F500283ED057
:102AD000284600F0A9FDD0B30646207A80B1676889
:102AE0004FF00009284639463246FDF7C3FC58B17D
:102AF000207A09F1010981455F44F3D3012012E0F6
:102B000001200028DDD011E0207863783A1D049977
:102B10000E9F00905FFA8AF0019700F095F86078B8
:102B2000B04482440020039F0028CAD0012EBBD1AC
:102B30001FFA88F03A5CE36804990E9E5FFA8AF007
:102B40000096FFF783FFE06808F10108B7E705B0DA
:102B5000BDE8F08F80B582B0024640F244700B466B
:102B60004FF0FF3CC2F200007821CDF800C0FEF724
:102B700091F902B080BD000080B540F27041C2F210
:102B80000001487008460221FFF7E4FF80BD000005
:102B90002DE9F04182B001F007070546CC0802FAA2
:102BA00007F00721984616460091C2B220462946F2
:102BB0003B46CDF8048000F0A5F86FB1C7F10801DD
:102BC00026FA01F2791EC9B2601C00912946002341
:102BD000CDF8048000F096F802B0BDE8F081000066
:102BE0002DE9F04383B001F00705DDF828805C197A
:102BF0008146CE08092C02FA05F016D307211746A4
:102C00000091C2B2304649462B46CDF8048000F010
:102C100079F8C5F1080127FA01F2A4F10901C9B256
:102C2000701C00914946002306E0611EC9B2009164
:102C3000C2B2304649462B46CDF8048000F062F817
:102C400003B0BDE8F08300002DE9F04F85B003909C
:102C50000E981F460E46C40800F00700019202902D
:102C600033B301984FF0000B049007E004980BF188
:102C7000010BBB4500F10100049019D00F9D002C01
:102C8000F4D00398DDF810800BEB00094FF0000A38
:102C900006EBCA0098F80020C1B25FFA89F02B4613
:102CA000FFF776FF0AF1010AA245B844F0D3DDE749
:102CB000DDF808A0DDF80C80DDF83C90BAF1000FDB
:102CC00018BF002F1AD00E9800F0F8008119019853
:102CD000CEB214FB07047F424FF0FF30451C204466
:102CE000427805EB0800C0B231465346CDF800905B
:102CF000FFF776FF781901302846EFD105B0BDE81F
:102D0000F08F000007282CD84FFA81FCBCF1000F8F
:102D100048BF704710B5DDE902EC40F27004BCF129
:102D2000000F4FF4FF7C0CFA0EFCC3F1080E4FF0BD
:102D3000FF03C2F2000423FA0EF304EBC01018BF25
:102D4000D24343EA0C03445C134323406FF0FF0477
:102D500044FA0EF424EA0C0422401A434254BDE81B
:102D60001040704743B2002B15D43F2988BF7047ED
:102D700001F0070C012303FA0CFC40F2700301F090
:102D8000F801C2F2000303EB0113195C18441AB1F5
:102D900021EA0C010170704741EA0C010170704793
:102DA000F0B581B040F27244C2F2000440202070BD
:102DB00040F27000C2F20000A0F180050027661CFE
:102DC000A7F15000C0B2FFF7D7FE0020FFF7D4FEF6
:102DD0001020FFF7D1FE8035304629468022FDF7CE
:102DE00075FB20468121FFF7B5FE0137082FE7D19B
:102DF00001B0F0BD7047000070B558B10446002620
:102E000005F07F45F0B2294600F05EF80136B0B219
:102E1000A042F5D300F0B0F800F048F870BD000013
:102E2000F0B581B070B1044600264FF47F0700BFB3
:102E300067F31705F0B2294600F046F80136B0B244
:102E4000A042F5D300F098F800F030F801B0F0BDE2
:102E5000F0B581B070B1044600264FF47F4700BF43
:102E600067F31705F0B2294600F02EF80136B0B22C
:102E7000A042F5D300F080F800F018F801B0F0BDE2
:102E8000F0B581B060B104460026FF2767F317054F
:102E9000F0B2294600F018F80136B0B2A042F5D3DE
:102EA00000F06AF800F002F801B0F0BD80B540F221
:102EB0009C7040F2F442C2F20000C2F20002002113
:102EC0007823FEF765FE80BDB0B50428C1F3074E38
:102ED00088BFB0BD40F2F44200EB4000C2F20002F5
:102EE00002EB401CC1F30723ACF10400072200BF32
:102EF00023FA02F4E4074FF04404A2F1010208BFF0
:102F00002024551C40F8044FF2D1C9B20CF11C002A
:102F1000072200BF21FA02F3DB074FF04403A2F1BE
:102F2000010208BF2023541C40F8043FF2D10CF1E9
:102F30003C0007212EFA01F2D2074FF04402A1F122
:102F4000010108BF20224B1C40F8042FF2D1B0BD74
:102F500070B558B10446002665F07F45F0B22946A9
:102F6000FFF7B2FF0136B0B2A042F5D300F004F88B
:102F7000FFF79CFF70BD000080B540F2F440C2F244
:102F8000000000F5C0706021FDF7E5FA80BD00008B
:102F900070470000B0B501380024B4EB106F1CBFBF
:102FA0000120B0BD4EF21005CEF2000568604FF072
:102FB000FF300F2100F06AFB0720AC60286020463C
:102FC000B0BD000080B5FEF73BF880BD70B592B093
:102FD00006AC20463021FDF7BEFA002543F640003E
:102FE0000595CDE90355CDE901550095C4F20200E0
:102FF0000168022641F080510160006800F08050B5
:103000000090009847F200000095C4F200000168AB
:1030100066F38F310160006800F440400090009832
:103020000120099010200A9008200696CDE90C6531
:103030000E905420CDE90F06042011902046FEF793
:1030400093F978B90F20CDE901064FF4805003952C
:10305000CDE9040501A80221FEF778F8002804BF95
:1030600012B070BDFDF7EEFB4EF68850CEF20000B8
:10307000016841F4700101607047000010B540F232
:10308000FF7E0368C4F2000E40F2000C7045C4F2EB
:10309000010C0ADD40F60002C4F2000290420DD09D
:1030A00060450BD040F6004204E0B0F1804F05D0FF
:1030B00040F20042C4F20002904203D14A6823F079
:1030C000700313434FF6FF72C4F20002904209DC12
:1030D000704512DCB0F1804F26D040F20042C4F2BD
:1030E00000021FE044F2FF32C4F2010290420FDC02
:1030F000604519D044F2000212E040F60002C4F22A
:103100000002904210D040F60042C4F2000209E0F2
:1031100044F60002C4F20102904205D044F200429B
:10312000C4F20102904203D1CA6823F440731343EE
:1031300023F080024B69D1F800E08C681A436045A7
:103140000260C462C0F828E002D10969CCF83010EE
:10315000012141610169C90708BF10BD016921F062
:103160000101016110BD000080B501F01F014FF0A9
:10317000010CD0F820E00CFA01F32EEA03030362FD
:10318000036A02FA01F11943016280BD10B5846B34
:10319000616A814211D0A16A814216D0E16A8142FE
:1031A0001BD0216B81421FD1C069082100282177E3
:1031B00004BF012084F8410016E0C1690120002904
:1031C000207708BF84F83E000EE0C0690221217715
:1031D00050B9012084F83F0006E0C069042121773E
:1031E00010B9012084F840002046FEF763FC00205F
:1031F000207710BD10B5846B616A81420AD0A16A44
:10320000814209D0E16A814208D0216B814207D115
:10321000082004E0012002E0022000E004202077E2
:103220002046FEF749FC0020207710BD10B5846BC6
:10323000616A81420CD0A16A81420ED0E16A81426A
:1032400011D0216B814214D0012084F83D0015E09B
:103250000120207784F83E0010E002202077012032
:1032600084F83F000AE004202077012084F8400021
:1032700004E008202077012084F841002046FEF772
:1032800055FB0020207710BDD0F808C011432CF466
:103290007F4C41EA032141EA0C0181607047000044
:1032A000826822F07002114341F00701816070478B
:1032B00070B5026A036A40F2000E23F00103036254
:1032C000456883690C688E6823F0730322F002025C
:1032D000C4F2010E43EA040C704542EA060208D02B
:1032E00070450ED04560C0F818C04968416302625D
:1032F00070BDCB6822F00C0223F004031A43704522
:10330000F0D125F44073D1E9056533431D43E9E766
:1033100070B5026A036A40F2000E23F010030362E4
:10332000456883690C688E6823F4E64322F0200226
:10333000C4F2010E43EA042C704542EA061208D09A
:10334000704510D04560C0F818C0496881630262BA
:1033500070BDCB686FF0400422F0C00204EA031392
:103360001A437045EED125F44063D1E9056543EA7F
:10337000860343EA8505E5E770B5026A036A40F211
:10338000000E23F4807303624568C3690C688E687D
:1033900023F0730322F40072C4F2010E43EA040C1A
:1033A000704542EA062208D0704510D04560C0F84A
:1033B0001CC04968C163026270BDCB6840F2FF4423
:1033C0001B0222F44062A3431A437045EED125F458
:1033D0004053D1E9056543EA061343EA0515E5E7DD
:1033E000B0B5D0F820E0026A22F48052026244684C
:1033F000C3690A6823F4E6438D6843EA022C00237C
:103400002EF40052C4F20103984242EA053304D17B
:103410004A6924F4804545EA82144460C0F81CC01F
:10342000496801640362B0BDD0F820C0036A23F08C
:1034300001030362836923F0F00343EA02122CF0D4
:103440000A0319438261016270470000D0F820C06E
:10345000036A23F010030362836923F4704343EA91
:1034600002322CF0A00343EA01118261016270472D
:10347000016851E8031F026821F4907142E80313C8
:10348000002BF5D1016851E8051F026821F0010108
:1034900042E80513002BF5D1016B01290AD100BFC9
:1034A000016851E8031F026821F0100142E803138C
:1034B000002BF5D1202180F84210002101637047D4
:1034C00010B504460068D4E902C22369016921F4F9
:1034D000405111430161626943EA0C01E369114300
:1034E000C268194349F20C639A431143C1604169B0
:1034F000A26921F4407141F20043114340F480621B
:10350000C4F201039A42416102D1FDF7E7FE01E0F6
:10351000FDF7D2FEE16963681922B1F5004FA0FB07
:1035200002011CD15A00DB0FFCF7A8FE48F21F5124
:10353000C5F2EB11A0FB01235A096FF0630302FBF4
:103540000300322303EBC000A0FB01014FF4F8702D
:1035500000EA111000EB0210C1F342111AE09A00C8
:103560009B0FFCF78BFE48F21F51C5F2EB11A0FB3D
:1035700001235A096FF0630302FB0300322303EBBC
:103580000010A0FB0101F02000EA511000EB021036
:10359000C1F3431122680843906010BD2DE9F0414A
:1035A00082B00446006800680840884203D10020C9
:1035B00002B0BDE8F0811D460E4690465F1C04E057
:1035C000206800683040B04228D0002FF8D0FDF7C6
:1035D00093FB01464FF003000DB3A1EB0801A94294
:1035E0001DD82068C1684907EAD5402EE8D0802E52
:1035F000E6D001680907E3D500250195016801912E
:103600004068019001982046FFF732FF082060646F
:1036100084F84050012002B0BDE8F081002002B0E3
:10362000BDE8F081FEE70000007801065CBF0120E4
:10363000704700F0E001C02904BF0220704700F08D
:10364000F001E02904BF0320704700F0F800F038D3
:10365000B0FA80F04009800070470000002848BFA1
:10366000704700F01F01012202FA01F14EF2001230
:103670004009CEF2000242F8201070474EF60C507E
:10368000CEF200000068C0F3022070474EF61453DB
:1036900000F00F02CEF2000309011A4400F160436A
:1036A000B0F1FF3FC8BF03F56442117070470000DE
:1036B0004EF60C51CEF200010A684FF6FF031A4095
:1036C00060F30A2242F0806040F0FD7008607047AD
:1036D00010B582B0D9B140F29870C2F20000026811
:1036E00040F2D46046F27C71C2F20000C0F60001E4
:1036F000FCF73CFE002045F64C43009018A2C0F6B3
:1037000000033C2016211624FFF7B6F916E0024606
:1037100040F2D46046F27C71C2F20000C0F60001B3
:10372000FCF724FE002045F64C43009010A2C0F6A2
:103730000003482003210324FFF79EF940F2D462DE
:1037400045F64C434FF0000CC2F20002C0F60003F5
:1037500066202146CDF800C0FFF78EF902B010BDFB
:10376000E69C80E9AB98E58886EFBC9A00000000F3
:10377000E5BE97E58886EFBC9A000000B0B582B040
:10378000FFF75AF945F65C44C0F6000400250DA287
:103790001820082123460095FFF76EF945F2BC6218
:1037A000C0F600020A2027210023FFF75DF809A2D6
:1037B00030202B2123460095FFF75EF9FFF7F0FA42
:1037C00002B0B0BDE5B08FE68190E9BE99E6B8B829
:1037D000E6888F00E5BC80E5A78B000086B00A2054
:1037E000ADF8140046F67240C0F66450049042F200
:1037F0006F00C6F67770039046F2685040F20044BE
:10380000C6F66C40C4F202040290FDF727FCFFF7F5
:10381000DDFBFEF779FEFEF75BFEFEF705FFFEF728
:10382000EDFFFEF721FFFEF781FF1420FDF76EF993
:1038300040F2E475C2F200052846FEF70BF9FFF7E7
:10384000A1F8FFF7F9F845F65C46C0F60006002738
:10385000AEA21020002133460097FFF70DF9B0A269
:103860003020102133460097FFF706F9AEA223203F
:10387000202133460097FFF7FFF8FFF791FA28461B
:103880000C21FEF71BF9C820FDF740F9A4F580656F
:1038900028460421FDF722FA062704F580660BE08E
:1038A0006420FDF733F90420FFF7A6FA6420FDF742
:1038B0002DF9013F012F21D930464FF40051FDF77A
:1038C0000DFA28460421FDF709FAB81E0428EDD8A0
:1038D000DFE800F004080C10040000BF0420FFF72C
:1038E000CFFADDE70420FFF733FBD9E70420FFF729
:1038F00097FAD5E70420FFF7ABFAD1E72846042171
:1039000001224FF0010AFDF7F1F930464FF4005162
:103910000122FDF7EBF90420FFF76EFA40F2E470A4
:10392000C2F200000C21FEF74FFAFFF785F8FFF70F
:1039300037FA6420FDF7EAF8FFF720FF40F62C067F
:1039400045F29C5B4FF00009C2F2000602AFC0F6E0
:10395000000B07E000F0B4FA00F018F94FF496708D
:10396000FDF7D4F8304639460E224FF6FF73FEF7C6
:10397000D3FA20464FF48071FDF7AAF9804600285B
:1039800008BF814628464FF48071FDF7A1F9002851
:1039900004BF4FF0010A4FF00109B8F1000F08BF52
:1039A0004FF0010AB9F1010F24D0B9F1000FD9D1BC
:1039B000BAF1000F03D0FFF7E1FE4FF0000A2046F6
:1039C0000421FDF785F90128C4D020461021FDF718
:1039D0007FF90128BED020462021FDF779F9012882
:1039E000B8D020464FF40071FDF772F90128B9D123
:1039F000B0E700BFBAF1000F06D0FFF71DF8FFF7E0
:103A0000CFF96420FDF782F84FF0000AFEF760FC62
:103A100001380B28A6D8DFE800F0060F18212A335A
:103A20003C454E576069FFF707F846F22412002024
:103A30000021C0F600025EE0FEF7FEFF45F64442BC
:103A400000200021C0F6000255E0FEF7F5FF46F623
:103A50008C6200200021C0F600024CE0FEF7ECFF73
:103A600045F6C41200200021C0F6000243E0FEF734
:103A7000E3FF46F6CC2200200021C0F600023AE027
:103A8000FEF7DAFF44F2982200200021C0F600027F
:103A900031E0FEF7D1FF44F2905200200021C0F641
:103AA000000228E0FEF7C8FF46F2D44200200021C1
:103AB000C0F600021FE0FEF7BFFF46F2747200205E
:103AC0000021C0F6000216E0FEF7B6FF45F66C6274
:103AD00000200021C0F600020DE0FEF7ADFF45F228
:103AE000AC2200200021C0F6000204E0FEF7A4FF93
:103AF000002000215A4600234FF0000AFEF7B4FED2
:103B0000FFF74EF96420FDF701F82BE7E58D97E408
:103B1000BAACE982AEE794B5E5A4A7E5ADA600008E
:103B2000454F415354000000E7A791E58D8FE4BE57
:103B30008BE7A88B000000000231032988BF704783
:103B400080B505A252F82120C1B20A200023FEF759
:103B50008BFEBDE8804070472C560008BC5600081C
:103B600074560008E455000880B50A460978C1F18A
:103B70007F018142B8BF80BD5178C0B2C1F13F0121
:103B8000C9B20023FEF770FE80BD00002DE9F04FA2
:103B900085B040F20044C4F20204FDF7ADF846F2ED
:103BA000EC764007C0F6000646F2D8753046C0F6FF
:103BB000000508BF28460490FDF79EF84CF6CD415D
:103BC000CCF6CC41484310F1CC3F304638BF2846B4
:103BD0000390002027274FF4B07A40F245294FF098
:103BE0000108002602900020019016E0AAEB0400D4
:103BF00081B2421E4FF6D173A14692B2994288BF5C
:103C0000D1462E2A3CBFA1468244FFF7C9F840F2B4
:103C1000004408F10108C4F20204FEF70DFF20463B
:103C20004FF40071FDF754F801280BD020462021F5
:103C3000FDF74EF8012805D020460421FDF748F88D
:103C4000012802D156B9012608E020461021FDF7CF
:103C50003FF81EB9012808BF012600BF0FFA8AF5F8
:103C6000052E3046A8BF05200C2DC0F11F01A8BFAE
:103C7000A94209DB049A38B2527800F11703C2F165
:103C80003F02934280F2DE800FFA89F40C2CA8BF29
:103C9000A14280F29B80012E0DDB46F28C70C0F6B3
:103CA0000000304410F8010C252EC0F1270706F162
:103CB0000106C8BF00264CF6CD40CCF6CC40A8FB90
:103CC0000001880800210290FFF702FD36B138B2EA
:103CD0004FF0FF31FFF730FF15E000BFDDF804B013
:103CE00000214FFA8BF0042838B2C8BF0121FFF73A
:103CF00023FF0BF1010B4FFA8BF00928C8BF4FF0DF
:103D0000000BCDF804B004992846FFF72DFF039966
:103D10002046FFF729FF00203F217F223F23002577
:103D20000095FEF7B1FDAAF102000FFA80FAA9F1A1
:103D30000200BAF1000F04B204DD002C3FF756AFC9
:103D400023E000BFFCF7D8FF4CF6CD42CCF6CC42C6
:103D5000A0FB0201C808A0FB0212110901EB8101BE
:103D6000A0EB810000F1FC0AFCF7C6FF800746F2D9
:103D7000EC71C0F6000146F2D870C0F6000008BF32
:103D800001460491002C3FF731AFFCF7B5FF4CF62C
:103D9000CD42CCF6CC42A0FB0201C808A0FB021227
:103DA000110901EB8101A0EB810000F27D14FCF709
:103DB000A3FFC00746F2EC71C0F6000146F2D870CE
:103DC000C0F6000008BF014603910FE738B224286F
:103DD000FFF661AF039900F117024978C1F13F0185
:103DE0008A42FFF658AF6FF00101FFF7A5FE049974
:103DF0002846FFF7B9FE03992046FFF7B5FE0024D9
:103E000000203F217F223F230094FEF73DFD029DCD
:103E100000212846FFF75CFC40F29870C2F20000D7
:103E200001688D4243DD46F27F7245F64C430560E2
:103E3000C0F60002C0F600034B2016210094FEF7E6
:103E40001BFE38E06FF00101FFF776FE049928466B
:103E5000FFF78AFE03990FFA89F0FFF785FE002429
:103E600000203F217F223F230094FEF70DFD029D9D
:103E700000212846FFF72CFC40F29870C2F20000A7
:103E800001688D420EDD46F27F7245F64C430560B7
:103E9000C0F60002C0F600034B2016210094FEF786
:103EA000EBFD08E028460121FFF712FC03E028465D
:103EB0000121FFF70DFCFEF773FF05B0BDE8F08FA1
:103EC000B0B582B0FEF7B8FD45F2BC62C0F60002A4
:103ED0000A20272100230024FEF7C6FC6FF002050C
:103EE0000435EAB200203F213F230094FEF7CCFCCA
:103EF000FEF756FF7C2DF3D302B0B0BDF1EE100AF1
:103F00004FF6FF71C0F2C03120EA010040F040706E
:103F1000E1EE100A704700000000000000000102FE
:103F20000304060708090000000001020304000062
:103F30000000000000000000000000000000000081
:103F40000000000000000000000000000000000071
:103F50000000000000000000000000000000000061
:103F60000000000000000000000000000000000051
:103F70000000000000000000000000000000000041
:103F80000000000000000000000000000000000031
:103F90000000000000000000000000000000000021
:103FA0000000000000000000000000000000000011
:103FB000000000000000000000000080C0F0F8FCDD
:103FC000FCFCFCFCFCFCFCF8F8F0E0C0000000008D
:103FD00000000000000000000000000000000000E1
:103FE00000000000000000000000000000000000D1
:103FF00000C0F0F0F8FCFCFCFCFEFCFCFCF8F0E07F
:104000008000000000000000000000000000000030
:1040100000000000000000000000000000000000A0
:1040200000000000000000000F3FFFFFFFFFFFFF48
:10403000FFFFFFFFFFFF7F3F1F00000000000000A9
:104040000000000000000000000000000000000070
:1040500000000000000000000000000000000F1F32
:104060007FFFFFFFFFFFFFFFFFFF7F3F1F070000F6
:104070000000000000000000000000000000000040
:104080000000000000000000000000000000000030
:10409000000000000000000001010303030303010E
:1040A000010100000000000000000000000000000E
:1040B0000000000000000000000000000000000000
:1040C00000000000000000000000000000000000F0
:1040D00001010101010000000000000000000000DB
:1040E00000000000000000000000000000000000D0
:1040F00000000000000000000000000000000000C0
:1041000000000000000000000000000000000000AF
:10411000000000000000008080C0C0E0E0F0F0F08F
:10412000787838383C3C3C3C1C1C1C1C1E1E1E1E57
:104130001E1C3C3C3C78F8F0F0E0C00000000000A1
:10414000000000000000000000000000000000006F
:10415000000000000000000000000000000000005F
:10416000000000000000000000000000000000004F
:10417000000000000000000000000000000000003F
:1041800000FCFFFF1F070703010100000000000003
:10419000000080800000000000000000000000001F
:1041A00000000080C0F3FFFF7F0C00000000000053
:1041B00000000000000000000000000000000000FF
:1041C00000000000000000000000000000000000EF
:1041D00000000000000000000000000000000000DF
:1041E0000000000000000000000000000000071FA9
:1041F0001F1E3E3C3E1E1E1E0F0F0F0F0F0F0F0FF8
:104200000F0F0F0F0F0F0F1E1E3E3E3E1E1E1F0FE5
:104210000F07030100000000000000000000000084
:10422000000000000000000000000000000000008E
:10423000000000000000000000000000000000007E
:10424000000000000000000000000000000000006E
:10425000000000000000000000000000000000005E
:10426000000000000000000000000000000000004E
:10427000000000000000000000000000000000003E
:10428000000000000000000000000000000000002E
:1042900000000000000000006D4000002E3F0008FC
:1042A0000C06000098450008100800000C4A0008A1
:1042B00000000000000000000000000000000000FE
:1042C00000000000000000000000000000000000EE
:1042D00000000000000000000000000000000000DE
:1042E00000000000000000000000000000000000CE
:1042F000000000000000000000800000000000003E
:1043000000000000000000000000000000000000AD
:10431000000000000000000000000000000000009D
:104320000000000000F0F8FEFFFFFFFFFFFEFEFCB4
:10433000F800000000000000000000000000000085
:104340000000000000000000000000000000F0F885
:10435000FCFEFEFFFFFFFFFFFFFEFCE00000000091
:10436000000000000000000000000000000000004D
:10437000000000000000000000000000000000003D
:1043800000030F1F3F3F3F3F3F1F1F0F0300000071
:10439000000000000000000000000000000000001D
:1043A0000000000000000000000003071F1F3F3F47
:1043B0003F3F3F1F1F0F07000000000000000000EC
:1043C00000000000000000000000000000000000ED
:1043D00000000000000000000000000000000000DD
:1043E000000000000000000000000000000080C08D
:1043F000E0E0E0E0E0E0E0E0E0E0E0E0E0E0E0E0BD
:10440000C0C080800000000000000000000000002C
:10441000000000000000000000000000000000009C
:10442000000000000000000000000000000000008C
:10443000000000000000000000000000000000007C
:104440000000000000000000F8FFFF03071F3F7C92
:10445000F0F0FC7F3F0F3FFFF8F0F07C3F1F1FFFA5
:10446000FFFC8000000000000000000000000000D1
:10447000000000000000000000000000000000003C
:10448000000000000000000000000000000000002C
:10449000000000000000000000000000000000001C
:1044A00000000000FFFFFFE0E0C0C0C0C0C0C0C00F
:1044B000C0C0C0C0C0C0C0C0E0E0F0FFFF1F03002C
:1044C00000000000000000000000000000000000EC
:1044D00000000000000000000000000000000000DC
:1044E00000000000000000000000000000000000CC
:1044F00000000000000000000000000000000000BC
:10450000001F3F7F7971F1F1F3F3F3F3F3F3F3F36A
:10451000F3F1F17171383F0F070000000000000057
:10452000000000000000000000000000000000008B
:10453000000000000000000000000000000000007B
:10454000000000000000000000000000000000006B
:10455000000000000000000000000000000000005B
:10456000000000000000000000000000000000004B
:10457000000000000000000000000000000000003B
:10458000000000000000000000000000000000002B
:104590005C400000B0420008000000000000000085
:1045A000000000000000FC0000000000020000000D
:1045B000000C020C020000000000000090D0BCD0F3
:1045C000BC900003000300001824FE448C0003028A
:1045D000070201001824D8B04C800003000102013A
:1045E000C038E438E00001020201020208060000BF
:1045F0000000000000000000000000F804020000BD
:1046000000010204000204F800000004020100009E
:104610009060F86090000000010000002020FC2065
:10462000200000000100000000000000000008065B
:1046300000000000202020202000000000000000DA
:104640000000000000000002000000000080601C6C
:104650000200040300000000F8040404F800010252
:10466000020201000008FC0000000002030200003A
:1046700018844424180003020202020008042424BF
:10468000D80001020202010040B088FC8000000056
:10469000000302003C242424C400010202020100A1
:1046A000F824242CC0000102020201000C04E41CC6
:1046B0000400000003000000D8242424D8000102D4
:1046C0000202010038444444F800000302020100E1
:1046D00000001000000000000200000000002000A8
:1046E00000000000060000000020508804020000C6
:1046F00000000102909090909000000000000000E7
:104700000002048850200002010000001804C424A4
:104710001800000002000000F804E494F800010210
:104720000202020000E09CF080000203000003028D
:1047300004FC2424D800020302020100F80404044B
:104740000C0001020202010004FC0404F800020350
:104750000202010004FC24740C00020302020300A4
:1047600004FC24740C00020302000000F00804445E
:10477000CC4000010202010004FC2020FC040203E2
:10478000000003020404FC0404000202030202000D
:10479000000404FC040406040403000004FC24D008
:1047A0000C0402030200030204FC040000000203E4
:1047B00002020203FC3CC03CFC00030003000300B7
:1047C00004FC30C4FC04020302000300F8040404E7
:1047D000F80001020202010004FC24241800020374
:1047E00002000000F8848404F800010202070500BA
:1047F00004FC2464980002030200030218242444E9
:104800008C000302020201000C04FC040C000002F4
:104810000302000004FC0000FC040001020201008D
:10482000047C80E01C040000030000001CE03CE06D
:104830001C00000300030000049C609C04000203B1
:1048400000030200041CE01C04000002030200003C
:104850000C84641C04000203020203000000FE0238
:104860000200000007040400000E30C00000000039
:1048700000010200000202FE000000040407000024
:10488000000402040000000000000000000000001E
:1048900000000808080808080000020000000000E6
:1048A000000000000040A0A0C000000102020302BE
:1048B00004FC2020C00000030202010000C02020F0
:1048C000600000010202020000C02024FC00000180
:1048D0000202030200C0A0A0C00000010202020008
:1048E0000020F82424040002030202000040A0A0DB
:1048F000602000070A0A0A0404FC2020C00002030A
:10490000020003020020E400000000020302000095
:10491000000020E4000008080807000004FC80E014
:1049200020200203020003020404FC000000020233
:1049300003020200E020E020C000030003000300A7
:1049400020E02020C00002030200030200C020205B
:10495000C00000010202010020E02020C000080F7A
:104960000A02010000C02020E0000001020A0F0836
:1049700020E0402020000203020000000060A0A010
:1049800020000002020203000020F82000000000C6
:104990000102020020E00020E00000010202030208
:1049A00020E0208060200000030100006080E080A3
:1049B000600000030003000020608060200002030C
:1049C0000003020020E020806020080807010000AA
:1049D0000020A0602000000203020200000020DE90
:1049E0000200000000070400000000FF00000000BB
:1049F000000F00000002DE2000000004070000009D
:104A00000201020404020000000000000000000097
:104A1000000000000000000000000000000000F89E
:104A200000000000000000333000000000100C0601
:104A3000100C0600000000000000000040C078409C
:104A4000C0784000043F04043F040400007088FC68
:104A500008300000001820FF211E0000F008F000C0
:104A6000E018000000211C031E211E0000F0088831
:104A7000700000001E2123241927211010160E009B
:104A8000000000000000000000000000000000E046
:104A9000180402000000000718204000000204185B
:104AA000E00000000040201807000000404080F0B7
:104AB000804040000202010F01020200000000F0ED
:104AC000000000000101011F0101010000000000C1
:104AD0000000000080B07000000000000000000036
:104AE00000000000000101010101010100000000BF
:104AF0000000000000303000000000000000000056
:104B000080601804006018060100000000E0100832
:104B10000810E000000F102020100F00001010F807
:104B2000000000000020203F202000000070080846
:104B300008887000003028242221300000300888C6
:104B4000884830000018202020110E000000C020EE
:104B500010F8000000070424243F240000F808880F
:104B6000880808000019212020110E0000E010889C
:104B700088180000000F112020110E0000380808CE
:104B8000C83808000000003F0000000000708808DE
:104B900008887000001C222121221C0000E010085F
:104BA0000810E0000000312222110F00000000C0B8
:104BB000C000000000000030300000000000008055
:104BC0000000000000008060000000000000804045
:104BD000201008000001020408102000404040405E
:104BE00040404000040404040404040000081020B1
:104BF00040800000002010080402010000704808F6
:104C00000808F0000000003036010000C030C8285D
:104C1000E810E0000718272423140B000000C03818
:104C2000E0000000203C23020227382008F8888892
:104C300088700000203F202020110E00C03008089E
:104C400008083800071820202010080008F8080875
:104C50000810E000203F202020100F0008F888886E
:104C6000E8081000203F20202320180008F888883A
:104C7000E8081000203F200003000000C0300808B2
:104C80000838000007182020221E020008F808003B
:104C90000008F808203F210101213F20000808F802
:104CA000080800000020203F202000000000080825
:104CB000F8080800C08080807F00000008F888C0E5
:104CC00028180800203F20012638200008F8080096
:104CD00000000000203F20202020300008F8F800CD
:104CE000F8F80800203F003F003F200008F830C0DF
:104CF0000008F808203F200007183F00E0100808CF
:104D00000810E0000F10202020100F0008F80808FD
:104D10000808F000203F210101010000E010080810
:104D20000810E0000F18242438504F0008F8888835
:104D300088887000203F2000030C30200070880815
:104D4000080838000038202121221C00180808F823
:104D5000080818000000203F2000000008F80800A4
:104D60000008F808001F202020201F000878880075
:104D700000C83808000007380E010000F80800F8E5
:104D80000008F800033C0700073C0300081868808F
:104D90008068180820302C03032C30200838C80005
:104DA000C83808000000203F200000001008080854
:104DB000C83808002038262120201800000000FEF6
:104DC000020202000000007F40404000000C30C0A2
:104DD00000000000000000010638C00000020202CE
:104DE000FE000000004040407F0000000000040280
:104DF00002020400000000000000000000000000AB
:104E0000000000008080808080808080000202049A
:104E10000000000000000000000000000000808092
:104E2000808000000019242222223F2008F8008000
:104E300080000000003F112020110E0000000080C3
:104E400080800000000E1120202011000000008052
:104E50008088F800000E112020103F200000808084
:104E600080800000001F222222221300008080F098
:104E7000888888180020203F2020000000008080C3
:104E800080808000006B94949493600008F8008008
:104E900080800000203F210000203F200080989863
:104EA000000000000020203F2020000000000080C3
:104EB0009898000000C08080807F000008F8000003
:104EC00080808000203F24022D302000000808F858
:104ED000000000000020203F202000008080808013
:104EE00080808000203F20003F20003F80800080A5
:104EF00080800000203F210000203F2000008080B3
:104F000080800000001F202020201F008080008063
:104F10008000000080FFA12020110E000000008012
:104F200080808000000E112020A0FF808080800003
:104F30008080800020203F21200001000000808030
:104F4000808080000033242424241900008080E025
:104F5000808000000000001F2020000080800000F2
:104F600000808000001F202020103F2080808000D3
:104F70000080808000010E300806010080800080E3
:104F8000008080800F300C030C300F000080800008
:104F9000808080000020312E0E3120008080800033
:104FA0000080808080818E701806010000808080E3
:104FB000808080000021302C222130000000000081
:104FC000807C020200000000003F40400000000022
:104FD000FF00000000000000FF0000000002027C53
:104FE000800000000040403F00000000000601017A
:104FF00002020404000000000000000000000000A5
:1050000000000000000000000000000000000000A0
:105010000000000000000000000000000000000090
:1050200000000000000000000000E0F0F0F0F0F0F0
:10503000E0E00000000000000000000000000000B0
:105040000000000000000000000000000000000060
:105050000000000000000000000000000000000050
:105060000000000000000000000000000000000040
:10507000000000000000C0F0FCFEFEFFFEC03EFE8F
:10508000FFFFFFFFFB8301010000000000000000A4
:105090000000000000000000000000000000000010
:1050A0000000000000000000000000000000000000
:1050B00000000000000000000000000000000000F0
:1050C00000000000000000000000007EFFFFFFFF66
:1050D000FFFFFFFF0CFBFFFDFDFDFFFEFEF00000EC
:1050E00000000000000000000000000000000000C0
:1050F00000000000000000000000000000000000B0
:10510000000000000000000000000000000000009F
:10511000000000000000000000000000000000008F
:10512000000001877F1FFFFFFFFFF8FF7F7F7FFFEA
:105130003F3F1F1F010000000000000000000000B2
:10514000000000000000000000000000000000005F
:10515000000000000000000000000000000000004F
:10516000000000000000000000000000000000003F
:1051700000000000000000C0E0F0F5FDFFFF7F7FB1
:105180003F7FFFFFFFFFF4E0000000000000000091
:10519000000000000000000000000000000000000F
:1051A00000000000000000000000000000000000FF
:1051B00000000000000000000000000000000000EF
:1051C0000000000000000000001030F6F77F3F0FE5
:1051D00007030100000000000001070F3F7FFFFCF4
:1051E000A800000000000000000000000000000017
:1051F00000000000000000000000000000000000AF
:10520000000000000000000000000000000000009E
:10521000000000000000000000000000000000602E
:10522000380F000000000000000000000000000037
:1052300000000000010379F0800000000000000081
:10524000000000000000000000000000000000005E
:10525000000000000000000000000000000000004E
:10526000000000000000000000000000000000003E
:105270008080E0FCFC8700000000000000000000CF
:1052800000000000000000000000000000030FFE0E
:10529000FCF0C080000000000000000000000000E2
:1052A0000000000000000000000000005640000068
:1052B000FC4F00080000000000000000000000009B
:1052C00000000000000000000000000000000000DE
:1052D00000000000000000000000000000000000CE
:1052E00000000000000000000000000000000000BE
:1052F00000000000000000000000000000000000AE
:10530000000000000000000000000000000000009D
:10531000000000000000000000000000000000008D
:10532000000000000000000000000000000000007D
:10533000000000000000000000000000808080806D
:1053400000808080C0E0F0F0F8F8F0E0C0000000DD
:10535000000000000000000000000000000000004D
:10536000000000000000000000000000000000003D
:10537000000000000000000000000000000000002D
:10538000000000000000000000000000000000001D
:10539000000000C0F0F8FCFFFFFFFFFFFFFC017FF3
:1053A000FFFFFFFFFFFFF981070703000000000078
:1053B00000000000000000000000000000000000ED
:1053C00000000000000000000000000000000000DD
:1053D00000000000000000000000000000000000CD
:1053E00000000000000000000000000000000000BD
:1053F000071F3FFFFFFFFFFFFFFF87F8FFFFFFFFD4
:10540000FDFBF7EFDF0000000000000000000000DF
:10541000000000000000000000000000000000008C
:10542000000000000000000000000000000000007C
:10543000000000000000000000000000000000006C
:105440000000000000000000000000000080A2E258
:10545000CAF0FFFFFFFFFFFFFFFFFFFFFFFF8F0F00
:105460000701000000000000000000000000000034
:10547000000000000000000000000000000000002C
:10548000000000000000000000000000000000001C
:10549000000000000000000000000000000000000C
:1054A0000000000068FCFC7E3F1F0F070707030396
:1054B000030303030307070F3F7FFFFFFCF04000D8
:1054C00000000000000000000000000000000000DC
:1054D00000000000000000000000000000000000CC
:1054E00000000000000000000000000000000000BC
:1054F00000000000000000000000000000000000AC
:1055000080FE0F000000000000000000000000000E
:10551000000000000000000001037880000000008F
:10552000000000000000000000000000000000007B
:10553000000000000000000000000000000000006B
:10554000000000000000000000000000000000005B
:1055500000000000000000008080E0FEFEFFC000B0
:10556000000000000000000000000000000000003B
:10557000000000000000000000FEFEF8E0C0800017
:10558000000000000000000000000000000000001B
:105590000000000000000000000000005D4000006E
:1055A000B452000800000000000000000000FEFFF0
:1055B000FFFBFFFFBFBFBF3F3E3FFCF8F0F0F8FC32
:1055C000FCFEFFFFFFFFFF7F040C00000000808057
:1055D0008183878F9F97878FFFC3C381808080805F
:1055E0008080800015170000A4550008000000000E
:1055F000000000000000FEFFF1F5F1FFFFFFFF7F5C
:105600007E7FFCF8E0E0F8FCFCFEFFFFFFFFFF7F81
:10561000041C000000008080818387FFDF8787876C
:10562000FFC3C381808080808080800015170000C8
:10563000EC55000800000000000000000000FEFF24
:10564000FFFBFFFFBFBFBF3F3E3FFCF8F0F0F8FCA1
:10565000FCFEFFFFFFFFFF7F040C000000008080C6
:10566000818387FFDF8F87878F8B8B81808080800E
:1056700080808000151700003456000800000000EC
:10568000000000000000FEFFFFFBFFFFBFBFBF3FA9
:105690003E3FFCF8F0F0F8FCFCFEFFFFFFFFFF7F51
:1056A000040C000000008080818387FFDF8F878FDC
:1056B000FFC3C38180808080808080001517000038
:1056C0007C56000800000000000000000000000000
:1056D00000000000000000000000000010383878D2
:1056E000787878F8F0F0F0F0F0F0F0E0E0E0E0C08A
:1056F000C0C08080800000000000000000000000AA
:105700000000000000008080C0C0C0E0E0E0E0F0E9
:10571000F0F0F0F0F0F0F0F07878787878787800C1
:105720000000000000000000000000000000000079
:105730000000000000000000000000000000000069
:105740000000000000000000000000010101030350
:10575000030707070F0F1F1F3E3E7C7CF8F8F8F881
:10576000FC7C3E1F1F0F0F07030303030101010011
:105770000000000000000000000000000000000029
:105780000000000000000000000000000000000019
:105790000000000000000000000000000080E0F0B9
:1057A000F8F8FCFEFEFEFEFEFEFEFCFCF8F0E080DB
:1057B00000000000000000000000000000000000E9
:1057C000000000000000000000000000000080C099
:1057D000E0F0F8F8F8F8F8F8F8F8F0E0E080000009
:1057E00000000000000000000000000000000000B9
:1057F000000000000000000000000000003FFFFF6C
:10580000FFFFFFFFFFFFFFFFFFFFFFFFFFFF7F3FE8
:105810000000000000000000000000000000000088
:10582000000000000000000000000000003CFFFF3E
:10583000FFFFFFFFFFFFFFFFFFFFFFFFFFFF3E0038
:105840000000000000000000000000000000000058
:105850000000000000000000000000000000000147
:105860000307070F0F0F0F0F0F0F070703010000AC
:105870000000000000000000008080C0C0C0C0C068
:10588000C080800000000000000000000000010354
:1058900007070F0F1F1F1F1F1F0F0F070301000018
:1058A00000000000000000000000000000000000F8
:1058B00000000000000000000000000000000000E8
:1058C00000000000000000000000000000000000D8
:1058D00000C0F0F8FC3E1E0F070703030303030399
:1058E00007070F1F1F7EFCF8F0E08000000000009B
:1058F00000000000000000000000000000000000A8
:105900000000000000000000000000000000000097
:105910000000000000000000000000000000000087
:105920000000000000000000000000000000000077
:105930000E1F0F0300000000000000000000000028
:10594000000000000000000307070700000000003F
:105950000000000000000000000000000000000047
:105960000000000000000000000000000000000037
:105970000000000000000000000000000000000027
:105980000000000000000000000000000000000017
:105990000000000000000000000000000000000007
:1059A00000000000000000000000000000000000F7
:1059B00000000000000000000000000000000000E7
:1059C0000000000060400000C45600080000000015
:1059D00000000000000000000000000000000000C7
:1059E00000000000000000000000000000000000B7
:1059F00000000000000000000000000000000000A7
:105A00000000000000000000000000000000000096
:105A10000000000000000000000000000000000086
:105A20000000000000000000000000000000000076
:105A300000000000000030F8F8F8F0F0E0C0C0000E
:105A40000000000000000000000000000000000056
:105A500000C0F0F8FCFCFEFE7E3E1E0000000000D0
:105A60000000000000000000000000000000000036
:105A70000000000000000000000080808080808026
:105A8000C0C0C0C0C0C0C0C1C3C7CFFFFFFFFFFEC2
:105A900070000000000000000000000000C0FCFFDB
:105AA000FFDFCFC7C3C1C0C0C0C0C0E0E0E0E0E0DE
:105AB000E0E0E0E000000000000000000000000066
:105AC00000000000000000003FFFFFE1C1810F3F28
:105AD0003F3F7F7F7F7F3F3F1F0FC3E1FFFF3F00BF
