:020000040800F2
:1000000010040020A90100085F0B0008B10A0008D5
:100010005D0B0008B5020008090C00080000000094
:10002000000000000000000000000000630B00085A
:10003000B702000800000000610B0008650B000813
:10004000C3010008C3010008C3010008C301000880
:10005000C3010008C3010008C3010008C301000870
:10006000C3010008C3010008C3010008C301000860
:10007000C3010008C3010008C3010008C301000850
:10008000C3010008C3010008C3010008000000000C
:10009000000000000000000000000000C301000894
:1000A000C3010008C3010008C3010008C301000820
:1000B000C3010008C3010008C3010008C301000810
:1000C000C3010008C3010008C3010008C301000800
:1000D000C3010008C3010008C301000800000000BC
:1000E000C3010008C3010008C301000800000000AC
:1000F000000000000000000000000000C301000834
:1001000000000000C3010008C3010008C30100088B
:1001100000000000000000000000000000000000DF
:10012000C3010008C3010008C3010008C30100089F
:10013000C3010008000000000000000000000000F3
:10014000000000000000000000000000C3010008E3
:10015000C3010008C3010008C3010008C30100086F
:10016000C3010008C30100080000000000000000F7
:10017000000000000000000000000000000000007F
:1001800000000000C30100080000000000000000A3
:10019000C3010008DFF80CD000F07AF800480047EF
:1001A000D50D000810040020064880470648004787
:1001B000FEE7FEE7FEE7FEE7FEE7FEE7FEE7FEE717
:1001C000FEE7FEE7ED0B0008950100082DE9F05F62
:1001D0000546002092469B468846064681464024B6
:1001E0001BE0284641464746224600F041F8534668
:1001F0005A46C01A914110D311461846224600F0C3
:1002000028F82D1A67EB01084F46224601200021ED
:1002100000F01FF817EB00094E41201EA4F1010465
:10022000DFDC484631462A464346BDE8F09FD2B25D
:1002300001E000F8012B491EFBD270470022F6E7CF
:1002400010B513460A4604461946FFF7F0FF20464C
:1002500010BD202A04DB203A00FA02F1002070478A
:100260009140C2F1200320FA03F3194390407047F4
:10027000202A04DB203A21FA02F00021704721FAFB
:1002800002F3D040C2F12002914008431946704762
:10029000064C074D06E0E06840F0010394E80700D3
:1002A00098471034AC42F6D3FFF778FF580E000899
:1002B000780E0008FEE770472DE9F84F00224FF056
:1002C000010803254FF00F0E0B6808FA02F42340D3
:1002D000A34271D14E68012E05D0022E03D0112EFB
:1002E00001D0122E15D18668570005FA07FC26EAC0
:1002F0000C06D1F80CC00CFA07FC4CEA060CC0F84E
:1003000008C04668A6430C79C4F3001494403443F3
:100310004460C668570005FA07FC8C6826EA0C069C
:10032000BC403443C4604C68022C01D0122C13D161
:10033000D40800EB8404A346D4F8209054074FEA75
:10034000D46A0EFA0AF629EA06090E6906FA0AF6CE
:1003500046EA0906CBF8206004680E7924EA0C040A
:1003600006F00306BE40264306604C68E40056D5FE
:100370002E4C266846F480462660246822F0030648
:1003800004F4804400942A4C3444A446D4F8084829
:100390009607370F0EFA07F6B443264EB04201D146
:1003A000002615E0244EB04201D1012610E0234E74
:1003B000B04202D102260BE031E0214EB04201D121
:1003C000032605E01F4EB04201D1042600E00726B7
:1003D000BE402643CCF808681B4E34684F689C43E7
:1003E000FF0300D51C433460174E361D34684F6838
:1003F0009C43BF0300D51C433460134E0836346859
:100400004F689C43FF0200D51C4334600E4E0C36EF
:1004100034684F689C43BF0200D51C433460521CB3
:10042000102AFFF451AFBDE8F88F000044380240B5
:100430000030014000000240000402400008024079
:10044000000C024000100240003C014000690840DE
:1004500000D001207047426931EA020200D109044C
:10046000816170470AB1816170470904FBE70000B0
:100470000148806870470000000000200248816841
:100480000278114481607047000000200B4810B5CD
:10049000016841F400710160016841F4806101600C
:1004A000016841F480710160032000F061F80020D0
:1004B00000F006F800F024F8002010BD003C0240D7
:1004C00070B50D4D04464FF47A712878B1FBF0F009
:1004D0000A490968B1FBF0F000F0D6FA48B9102CCF
:1004E00007D200222146501E00F022F800206C6046
:1004F00070BD012070BD0000000000200C00002035
:100500000A4808B5016841F480410160006800F4C0
:10051000804000900548001F016841F08051016053
:10052000006800F08050009008BD00004438024090
:10053000F0B40E4B1B680C46C3F30223C3F107054E
:10054000042D00D90425191D072901D2002300E03C
:10055000DB1E012606FA05F1491E214099409E4006
:10056000761E16403143F0BC00F04FBB0CED00E0AE
:10057000064900F0070208684FF6FF03184040EAFA
:100580000220034A10430860704700000CED00E0B1
:100590000000FA052DE9F0470E46050065D0DFF8AA
:1005A0001481D8F80000F7B200F00F00B04207D273
:1005B00088F80070D8F8000000F00F00B04254D165
:1005C00028683D4C810712D5400703D5206840F4C8
:1005D000E05020602878000703D5206840F4604090
:1005E00020602068A96820F0F00008432060287887
:1005F000C0072DD0304968680839012812D0022878
:1006000013D0032811D00968890700292DDA216841
:1006100021F0030101432160FFF72AFF814641F2E7
:10062000883A0EE009688903EFE709688901ECE779
:10063000FFF71EFFA0EB0901514502D90320BDE8D9
:10064000F0872068696800F00C00B0EB810FEFD1F3
:10065000D8F80010404601F00F01B14207D90770E9
:10066000006800F00F00B04201D00120E7E72878D1
:10067000400705D52068E96820F4E0500843206071
:100680002878000706D52068296920F4604040EAF0
:10069000C100206000F018F82168084AC1F3031176
:1006A000515CC8400649086006480068FFF708FF2B
:1006B0000020C4E7003C024008380240480E000811
:1006C0000C00002004000020154810B5006810F050
:1006D0000C02144813D01449042A0FD0082A0ED152
:1006E0000F4C241F2268236802F03F025B0207D5EB
:1006F0002068C0F38810A0FB010106E0084610BD89
:100700002168C1F38811A1FB00010023FFF75EFD02
:100710002168C1F30141491C4900B0FBF1F010BD53
:10072000083802400024F40040787D012DE9F84F9C
:1007300004006ED02078DFF83C93C007A9F10405CF
:100740004AD009F104000168C1F38101012908D0F0
:100750000068C0F3810002280AD1D9F800004002E5
:1007600006D52868800337D560680028E1D033E0DB
:100770006068B0F5803F10D0B0F5A02F286810D089
:1007800020F480302860286820F480202860606889
:10079000A8B1FFF76DFE06460DE0286840F48030F2
:1007A000F4E740F480202860F7E700BFFFF760FE21
:1007B000801B642873D828688003F7D50CE0FFF706
:1007C00057FE064605E000BFFFF752FE801B642877
:1007D000F0D828688003F7D42078DFF89C8280075F
:1007E0004FF0000A3ED5A348001D016811F00C0F20
:1007F00008D00068C0F3810002280BD1D9F80000AE
:10080000400207D42868800716D5E068012800D187
:1008100012E02BE1E068B8B10120C8F80000FFF752
:1008200027FE064605E000BFFFF722FE801B0228D8
:10083000C0D828688007F7D52868216920F0F8001B
:1008400040EAC10028600DE0C8F800A0FFF710FEE4
:10085000064604E0FFF70CFE801B02281FD828681C
:100860008007F7D42078000722D5824E834861693B
:10087000703671B101210160FFF7FAFD074604E00F
:10088000FFF7F6FDC01B022809D830688007F7D5AE
:100890000EE0C0F800A0FFF7EBFD074605E082E0A0
:1008A000FFF7E6FDC01B02287DD830688007F7D42B
:1008B0002078400768D5DFF8BCB100270BF13C0B6E
:1008C000DBF80000C0000BD4DBF8001041F08051D1
:1008D000CBF80010DBF80000012700F080500090FA
:1008E000674E3068C00510D4306840F480703060C6
:1008F000FFF7BEFD009005E0FFF7BAFD0099401A32
:10090000022850D83068C005F6D55A4EA0686C361B
:1009100001280FD00528306810D020F00100306089
:10092000306820F004003060A068B8B1FFF7A0FD87
:1009300000900FE0306840F00100F4E740F0040060
:100940003060F7E7FFF794FD0099411A41F28830D3
:10095000814266D830688007F4D50EE0FFF788FD45
:10096000009007E0FFF784FD0099411A41F28830BA
:10097000814256D830688007F4D42FB1DBF80010DC
:1009800021F08051CBF80010A069C8B33949091D86
:100990000968C1F3810102294AD00228504607D0D4
:1009A000C8F8600000E03CE0FFF762FD04463BE071
:1009B0004746C8F86000FFF75BFD064605E000BF4C
:1009C000FFF756FD801B02282BD828688001F7D43A
:1009D000D4E907010843A16A2A4A490802EB014108
:1009E000626A41EA8211084394F82C1040EA0161DE
:1009F000C9F8001001203866FFF73AFD044606E00A
:100A000036E000BFFFF734FD001B022809D8286834
:100A10008001F7D52CE000BFFFF72AFD001B02285C
:100A200002D90320BDE8F88F28688001F4D41FE0C4
:100A30000128F7D0D9F80000E26900F48001914262
:100A400014D1226A00F03F0191420FD147F6C071E4
:100A5000626A0140914209D1A26A00F44031914298
:100A600004D1E16A00F07060884201D00120D9E72A
:100A70000020D7E70438024000004742800E47427A
:100A8000007000400000FFFF10B5401EB0F1807FF5
:100A900001D3012010BD4FF0E02460610F216017E9
:100AA00000F0B3F80020A06107202061002010BDF5
:100AB000FEE700002DE9F04186B014216846FFF7FB
:100AC000BDFB23480024016841F0800101600168FA
:100AD00001F080010591016841F0010101600168A8
:100AE00001F001010591016841F002010160006817
:100AF000184F00F002000590012204213846FFF74C
:100B0000B1FCDFF854804FF40D76002231464046A8
:100B1000FFF7A8FC042000900125CDE901546946A7
:100B200038460394FFF7C8FB0320CDE90240CDE926
:100B3000006569464046FFF7BFFB4FF470408DE803
:100B4000310069464046FFF7B7FB06B0BDE8F081CB
:100B5000303802400000024000040240FEE77047C7
:100B600070477047FFF78ABC30B593B030216846B4
:100B7000FFF764FB14210CA8FFF760FB1948002560
:100B8000016841F080510160006800F080501190D0
:100B90001548016821F4404141F4004101600068BA
:100BA000022400F4404011900120009000040190C4
:100BB0008001CDE9064019200890A820CDE909045C
:100BC00004200B906846FFF7B1FD0CA90F2081E8C7
:100BD0003100E002CDE90F0502210CA8FFF7DAFC95
:100BE00013B030BD40380240007000400548016835
:100BF00041F47001016003494FF0006080390860E2
:100C00007047000088ED00E0FEE70907090E0028A4
:100C100004DB00F1E02080F80014704700F00F00C2
:100C200000F1E02080F8141D704702E008C8121F90
:100C300008C1002AFAD170477047002001E001C1C5
:100C4000121F002AFBD170472DE9F05F604D002490
:100C5000224604212846FFF705FC012210212846E0
:100C6000FFF700FC012220212846FFF7FBFB0122B1
:100C7000570239462846FFF7F5FBAE1431462846A1
:100C8000FFF7E4FB00B901244FF400594946284618
:100C9000FFF7DCFB00B902244FF4804841462846A8
:100CA000FFF7D4FB00B903244FF4004B5946284604
:100CB000FFF7CCFB00B90424012204212846FFF7EA
:100CC000D1FB002210212846FFF7CCFB0122202176
:100CD0002846FFF7C7FB0122BA4639462846FFF7E8
:100CE000C1FB31462846FFF7B1FB00B90524494650
:100CF0002846FFF7ABFB00B9062441462846FFF71C
:100D0000A5FB00B907245F4659462846FFF79EFB1E
:100D100000B90824012204212846FFF7A3FB012281
:100D200010212846FFF79EFB002220212846FFF7CE
:100D300099FB0122D34651462846FFF793FBB24662
:100D400031462846FFF782FB00B909244946284668
:100D5000FFF77CFB00B90A24464641462846FFF7C8
:100D600075FB00B90B2439462846FFF76FFB00B925
:100D70000C24012204212846FFF774FB01221021D4
:100D80002846FFF76FFB012220212846FFF76AFB68
:100D9000002259462846FFF765FB51462846FFF7D3
:100DA00055FB00B90D2449462846FFF74FFB00B913
:100DB0000E2431462846FFF749FB00B90F24394677
:100DC0002846FFF743FB00B910242046BDE8F09FFA
:100DD00000040240FFF74CFB0446FFF757FBFFF708
:100DE000C3FEFFF767FE164E002204213046FFF7D0
:100DF00039FBDFF85080B71539464046FFF726FB30
:100E000058B9FFF735FB001B0A2803D904213046E7
:100E1000FFF721FBFFF72CFB0446FFF715FF05004A
:100E2000EAD0FFF725FB001BC82802D9FFF720FBFB
:100E30000446012DE0D104213046FFF70CFBDBE72F
:100E4000000002400004024000000000000000001A
:100E50000102030406070809780E000800000020BC
:100E6000100000002A0C0008880E00081000002066
:100E7000000400003A0C000801000000100000000F
:080E8000000000000024F40052
:040000050800019559
:00000001FF
